:020000040800F2
:10000000680A00209D010008E91F0008E5190008A2
:10001000E51F0008C50200087D260008000000005A
:10002000000000000000000000000000ED1F0008BC
:10003000C902000800000000EB1F0008EF1F0008C5
:10004000B7010008B7010008B7010008B7010008B0
:10005000B7010008B7010008B7010008B7010008A0
:10006000B7010008B7010008B7010008B701000890
:10007000B7010008B7010008B7010008B701000880
:10008000B7010008B7010008B7010008B701000870
:10009000B7010008B7010008B7010008B701000860
:1000A000B7010008B7010008B7010008B701000850
:1000B000B7010008B7010008B7010008B701000840
:1000C000B7010008B7010008B7010008B701000830
:1000D000B70100086D260008B7010008B701000845
:1000E000B7010008B7010008B7010008B701000810
:1000F000B7010008B7010008B7010008B701000800
:10010000B7010008B7010008B7010008B7010008EF
:10011000B7010008B7010008B7010008B7010008DF
:10012000B7010008B7010008B7010008B7010008CF
:10013000B7010008B7010008B7010008B7010008BF
:10014000B7010008B7010008B7010008B7010008AF
:10015000B7010008B7010008B7010008B70100089F
:10016000B7010008B7010008B7010008B70100088F
:10017000B7010008B7010008B7010008000000003F
:10018000B7010008B7010008DFF80CD000F088F8CC
:100190000048004729270008680A002006488047D1
:1001A00006480047FEE7FEE7FEE7FEE7FEE7FEE75C
:1001B000FEE7FEE7FEE7FEE7DD2000088901000814
:1001C0002DE9F05F0546002092469B46884606468C
:1001D000814640241BE0284641464746224600F01F
:1001E0004EF853465A46C01A914110D3114618464C
:1001F000224600F035F82D1A67EB01084F462246DB
:100200000120002100F02CF817EB00094E41201EC0
:10021000A4F10104DFDC484631462A464346BDE8E6
:10022000F09FD2B201E000F8012B491EFBD27047CB
:100230000022F6E710B513460A4604461946FFF7B2
:10024000F0FF204610BD30B504460020034600E014
:100250005B1C934203D2E05CCD5C401BF8D030BD08
:10026000202A04DB203A00FA02F100207047914076
:10027000C2F1200320FA03F3194390407047202A6B
:1002800004DB203A21FA02F00021704721FA02F340
:10029000D040C2F120029140084319467047000047
:1002A000064C074D06E0E06840F0010394E80700C3
:1002B00098471034AC42F6D3FFF76AFF04280008D1
:1002C0002428000800BFFEE770470000FEB5044682
:1002D0000D461646322001232246A121CDE90056C3
:1002E0000290044800F076FA074617B102A002F027
:1002F000C9F9FEBD18010020454550524F4D5F72AF
:10030000656164206572726F72210D0A0000000041
:1003100000B5ADF5017D002002E041AA1054401C5B
:10032000FF28FADD4FF4807241A9002000F028F880
:100330004FF4807201A90020FFF7C8FF4FF48072CC
:1003400001A941A8FFF77FFF10B903A002F09AF9B5
:100350000DF5017D00BD0000696620796F75207381
:10036000656520746869732C20454550524F4D20B7
:1003700074657374207061737365640D0A00000006
:100380002DE9F04106460F461446082C05DC2246AE
:100390003946304600F028F824E0002509E008221C
:1003A0003946304600F020F806F1080086B20837DA
:1003B0006D1CE11704EB5171B5EBE10FEFDBE117B9
:1003C00004EB5171C910A4EBC10159B12546E017E6
:1003D00004EB5070C010A4EBC00082B23946304626
:1003E00000F002F8BDE8F081FEB506460F4614465F
:1003F000082C03DD0B4802F045F9FEBD3220012335
:100400003246A021CDE900740290074800F076FB47
:10041000054615B105A002F035F90A2000F026F8CE
:1004200000BFEAE7B42700081801002045455052F4
:100430004F4D5F5772697465206572726F72210D3E
:100440000A000000014691F83500022803D0802000
:10045000486501207047052081F83500086800686C
:1004600020F001000A6810600020F3E770B5044630
:1004700000F016F906462546681C10B104480078BD
:10048000054400BF00F00CF9801BA842FAD370BDF0
:1004900010000020F8B502460B460025002400207D
:1004A0000021DCE0012606FA01F51E6806EA0504D3
:1004B000AC4273D15E68022E02D05E68122E13D158
:1004C000CF0802F1200656F827004E07F70E0F2638
:1004D000BE40B0434F07FF0E1E69BE403043CF08F9
:1004E00002F1200646F8270010684F000326BE40A0
:1004F000B0431E7906F003064F00BE403043106043
:100500005E68012E08D05E68022E05D05E68112E4E
:1005100002D05E68122E13D190684F000326BE40B1
:10052000B0434F00DE68BE40304390605068012603
:100530008E40B0431E79C6F300168E4030435060A3
:10054000D0684F000326BE40B0434F009E68BE40B7
:100550003043D0605E6806F08056B6F1805F7DD192
:1005600000BF00260096404E366846F480463E4F57
:100570003E603E46366806F48046009600BF00BFE7
:100580003A4E8F0856F827008E07370F0F26BE40C9
:10059000B043374EB24202D1002624E05EE0354E31
:1005A000B24201D101261EE0334EB24201D10226F1
:1005B00019E0324EB24201D1032614E0304EB2426D
:1005C00001D104260FE02F4EB24201D105260AE0E8
:1005D0002D4EB24201D1062605E02C4EB24201D189
:1005E000072600E008268F073F0FBE4030431F4E0E
:1005F0008F0846F82700264E3068A0435E6806F450
:100600008036B6F5803F00D12043214E3060361D44
:100610003068A0435E6806F40036B6F5003F00D1AE
:1006200020431B4E361D3060361D3068A0435E6887
:1006300006F48016B6F5801F00D12043144E08360C
:100640003060361D3068A0435E6806F40016B6F5CB
:10065000001F00D120430E4E0C363060491C10297B
:10066000FFF420AFF8BD00004438024008380140D4
:10067000000002400004024000080240000C02405A
:10068000001002400014024000180240001C02400A
:10069000003C01400AB1816101E00B0483617047B5
:1006A00001480068704700000800002070B504464B
:1006B000002600250CB9012070BD94F83D0028B932
:1006C000002084F83C00204600F0DCFA242084F866
:1006D0003D002068006820F001002168086000F0FB
:1006E000C5FC05463948B5FBF0F620684660384938
:1006F0006068884201D8701C07E04FF49670704320
:100700004FF47A71B0FBF1F0401C21680862304967
:10071000606888420ED860684000B5FBF0F0C0F316
:100720000B00042801D204202DE060684000B5FBD6
:10073000F0F028E0A06828B9606800EB4000B5FB45
:10074000F0F008E0606800EBC00101EB0010B5FBC1
:10075000F0F040F48040C0F30B0008B9012012E033
:10076000A06828B9606800EB4000B5FBF0F008E035
:10077000606800EBC00101EB0010B5FBF0F040F445
:10078000804040F400402168C861D4E90701084373
:1007900021680860D4E90310084321688860D4E91F
:1007A000050108432168C8602068006840F0010026
:1007B0002168086000202064202084F83D0000208B
:1007C000206384F83E0000BF76E7000040420F003F
:1007D000A08601002DE9FC5F04460F46904699462D
:1007E000DDE90CAB0E9E0025FFF75AFF054694F895
:1007F0003D0020287ED119230122BD4920460095C5
:1008000001F053FA10B10220BDE8FC9F00BF94F83C
:100810003C00012801D10220F6E7012084F83C00C9
:1008200000BF2068006800F0010028B92068006857
:1008300040F00100216808602068006820F4006032
:1008400021680860222084F83D00402084F83E00A2
:1008500000202064C4F824A0A4F82AB0A548E062CF
:10086000608D20854B46424639462046CDE90065DD
:1008700001F0D4F880B1206C042806D100BF00201C
:1008800084F83C0000BF0120BEE700BF002084F8D0
:100890003C0000BF0320B7E7208D88B900BF0020CF
:1008A000019020684069019020688069019000BF34
:1008B00000BF2068006840F400702168086041E0D3
:1008C000208D012819D12068006820F480602168FB
:1008D000086000BF002001902068406901902068F6
:1008E0008069019000BF00BF2068006840F400707C
:1008F000216800E0FAE0086024E0208D022816D18B
:100900002068006820F48060216808602068006822
:1009100040F400602168086000BF0020019020685A
:100920004069019020688069019000BF0AE000BF23
:100930000020019020684069019020688069019042
:1009400000BF00BFC3E0208D032872D8208D01288E
:100950001AD12A463146204601F03BFA30B1206CCC
:10096000202801D103204FE701204DE720680069CE
:10097000C1B2626A501C60621170208D401E2085D9
:10098000608D401E6085A2E0208D02282AD133466A
:10099000002259492046009501F087F908B103204B
:1009A00032E72068006840F4007021680860206821
:1009B0000069C1B2626A501C60621170208D401ED5
:1009C0002085608D401E608520680069C1B2626A22
:1009D000501C60621170208D401E2085608D401E6D
:1009E000608574E03346002243492046009501F0BB
:1009F0005CF908B1032007E72068006820F48060F4
:100A00002168086020680069C1B2626A501C606297
:100A10001170208D401E2085608D401E60853346FC
:100A2000002235492046009501F03FF910B103201E
:100A3000EAE620E02068006840F400702168086061
:100A400020680069C1B2626A501C60621170208D1A
:100A5000401E2085608D401E608520680069C1B2FF
:100A6000626A501C60621170208D401E2085608D6E
:100A7000401E60852BE02A463146204601F0A9F948
:100A800030B1206C202801D10320BDE60120BBE657
:100A900020680069C1B2626A501C60621170208DCA
:100AA000401E2085608D401E608520684069C0F32F
:100AB000800060B120680069C1B2626A501C606247
:100AC0001170208D401E2085608D401E6085208D18
:100AD00000287FF438AF202084F83D00002084F8FF
:100AE0003E0000BF84F83C0000BF8DE602208BE68C
:100AF000020010000000FFFF040001002DE9FC5F70
:100B000004460F4690469946DDE90CAB0E9E002543
:100B1000FFF7C6FD054694F83D0020287ED1192335
:100B2000012256492046009501F0BFF810B102207D
:100B3000BDE8FC9F00BF94F83C00012801D10220D1
:100B4000F6E7012084F83C0000BF2068006800F050
:100B5000010028B92068006840F0010021680860A1
:100B60002068006820F4006021680860212084F873
:100B70003D00402084F83E0000202064C4F824A0FA
:100B8000A4F82AB03E48E062608D20854B4642467C
:100B900039462046CDE9006500F0ECFF80B1206CBD
:100BA000042806D100BF002084F83C0000BF0120CB
:100BB000BEE700BF002084F83C0000BF0320B7E779
:100BC00033E02A463146204601F03AF960B1206C04
:100BD000042807D12068006840F40070216808608C
:100BE0000120A5E70320A3E7616A481C606208783A
:100BF00021680861208D401E2085608D401E608523
:100C000020684069C0F3800078B1208D68B1616AC6
:100C1000481C606208782168086100E02CE0208DA3
:100C2000401E2085608D401E6085208D0028C8D123
:100C30002A463146204601F00DF860B1206C0428A8
:100C400007D12068006840F4007021680860012026
:100C50006EE703206CE72068006840F400702168AC
:100C60000860202084F83D00002084F83E0000BF8A
:100C700084F83C0000BF5BE7022059E70200100047
:100C80000000FFFF10B586B0044612492068884274
:100C90001ED14FF440700190122002900120039069
:100CA000032004900420059001A90B48FFF7F2FBF4
:100CB00000BF002000900948006840F40010074978
:100CC00008600846006800F40010009000BF00BFF4
:100CD00006B010BD005400400004024040380240FD
:100CE00003480068034909780844014908607047CF
:100CF000080000201000002010B50D48006840F4E6
:100D000000700B4908600846006840F48060086085
:100D10000846006840F480700860032000F0CCF8BA
:100D2000002000F007F800F02BF8002010BD0000B4
:100D3000003C024070B504460E4800784FF47A71CA
:100D4000B1FBF0F00C490968B1FBF0F5284600F062
:100D50003EFC08B1012070BD102C07D200222146B4
:100D6000501E00F06BF80548046001E00120F2E736
:100D70000020F0E710000020040000200C000020FC
:100D800008B500BF002000902348006840F4804070
:100D9000214908600846006800F48040009000BFC8
:100DA00000BF00BF00200090081F006840F0805086
:100DB000091F08600846006800F08050009000BFDE
:100DC00000BF032000F078F8002211466FF00B00FE
:100DD00000F034F8002211466FF00A0000F02EF8FF
:100DE000002211466FF0090000F028F80022114699
:100DF000501F00F023F800221146101F00F01EF8CB
:100E000000221146901E00F019F800221146501ED3
:100E100000F014F808BD00004438024001460846BE
:100E2000002809DB00F01F0301229A4043099B00C0
:100E300003F1E023C3F8002100BF70472DE9F05F04
:100E400080460D461646002701F024FC0746394629
:100E50002A46334601F00700C0F1070ABAF1040F31
:100E600002D94FF0040A01E0C0F1070AD14600F1AF
:100E7000040ABAF1070F02D24FF0000A01E0A0F114
:100E8000030AD4464FF0010A0AFA09FAAAF1010A44
:100E90000AEA020A0AFA0CFA4FF0010B0BFA0CFBF1
:100EA000ABF1010B0BEA030B4AEA0B042146404667
:100EB00001F0F8FBBDE8F09F00BF00F00702064B11
:100EC00019684FF6FF031940044B0B4343EA022114
:100ED000014B196000BF70470CED00E00000FA05FF
:100EE00070B504460D460CB9012070BD5848006825
:100EF00000F00F00A84209D255490D70084600685D
:100F000000F00F00A84201D00120EEE7207800F0A9
:100F1000020002281DD1207800F00400042805D129
:100F20004C48006840F4E0504A490860207800F0DE
:100F30000800082805D14748006840F4604045494A
:100F400008604448006820F0F000A1680843414967
:100F50000860207800F00100A8B36068012807D17C
:100F60003C4808380068C0F34040B8B90120BCE7ED
:100F70006068022802D06068032807D13548083825
:100F80000068C0F3406048B90120AEE73148083836
:100F90000068C0F3400008B90120A6E72D480068AA
:100FA00020F00300616808432A490860FFF778FBD6
:100FB000064609E0FFF774FB801B41F28831884246
:100FC00002D9032091E707E02248006800F00C00F6
:100FD0006168B0EB810FEDD11D48006800F00F0093
:100FE000A84209D91A490D700846006800F00F00A0
:100FF000A84201D0012078E7207800F004000428FE
:1010000007D11448006820F4E050E1680843114912
:101010000860207800F00800082808D10D48006812
:1010200020F46040216940EAC1000A49086000F0EC
:101030003DF808490968C1F30311074A515CC840EB
:10104000064908600020FFF775FE00204DE700000C
:10105000003C0240083802408427000804000020B9
:1010600001480068704700000400002000B5FFF749
:10107000F7FF04490968C1F38221034A515CC84063
:1010800000BD0000083802409427000800B5FFF7B3
:10109000E7FF04490968C1F34231034A515CC84083
:1010A00000BD000008380240942700082DE9F047F1
:1010B000002400250026A1462548006800F00C0009
:1010C00020B1042805D008283AD105E0DFF8849043
:1010D00039E0DFF8849036E01D48001F006800F01A
:1010E0003F041B48001F006800F4800078B11A48D4
:1010F0001749091F0968C1F38811A0FB0170014657
:10110000224600233846FFF75BF805460EE01148FB
:101110000F49091F0968C1F38811A0FB017001463E
:10112000224600233846FFF74BF805460848001FC3
:101130000068C0F30140401C4600B5FBF6F902E030
:10114000DFF8109000BF00BF4846BDE8F087000000
:10115000083802400024F40000127A00F8B5044672
:101160000CB90120F8BD207800F00100002874D0EF
:10117000F948006800F00C0004280DD0F64800681B
:1011800000F00C00082813D1F348001F006800F499
:101190008000B0F5800F0BD1EF4808380068C0F32D
:1011A0004040002859D06068002856D10120D9E776
:1011B00000BF6068B0F5803F08D1E7480838006894
:1011C00040F48030E449083908601EE06068B0F5FA
:1011D000A02F0DD1E0480838006840F48020DE4997
:1011E000083908600846006840F4803008600CE068
:1011F000D9480838006820F48030D7490839086099
:101200000846006820F48020086000BF606890B144
:10121000FFF746FA054606E0FFF742FA401B64284E
:1012200001D903209EE7CC4808380068C0F340404D
:101230000028F1D011E0FFF733FA054606E0FFF78A
:101240002FFA401B642801D903208BE7C2480838D5
:101250000068C0F340400028F1D1207800F002007F
:1012600002285FD1BC48006800F00C0058B1BA48B1
:10127000006800F00C0008281CD1B748001F006867
:1012800000F48000B0B9B44808380068C0F34000EA
:1012900020B1E068012801D0012063E7AE4808389A
:1012A000006820F0F800216940EAC100AA49083925
:1012B000086037E0E06800B30120A8490860FFF744
:1012C000EFF9054606E0FFF7EBF9401B022801D9CC
:1012D000032047E7A04808380068C0F34000002812
:1012E000F1D09D480838006820F0F800216940EAF4
:1012F000C10099490839086014E000209749086046
:10130000FFF7CEF9054606E0FFF7CAF9401B0228B1
:1013100001D9032026E7904808380068C0F3400050
:101320000028F1D1207800F0080008282CD160694D
:10133000A8B101208A490860FFF7B2F9054606E026
:10134000FFF7AEF9401B022801D903200AE78248C3
:101350006C300068C0F340000028F1D014E0002099
:101360007F490860FFF79CF9054606E0FFF798F90A
:10137000401B022801D90320F4E677486C3000684E
:10138000C0F340000028F1D1207800F004000428C8
:1013900070D1002670483830006800F0805090B955
:1013A00000BF002000906C483830006840F080504A
:1013B0006949383108600846006800F080500090A4
:1013C00000BF00BF01266748006800F48070B0B914
:1013D0006448006840F4807062490860FFF760F973
:1013E000054606E0FFF75CF9401B022801D90320FF
:1013F000B8E65C48006800F480700028F2D000BFB6
:10140000A068012808D154486830006840F0010005
:101410005149683108601DE0A06805280DD14E488B
:101420006830006840F004004B49683108600846A5
:10143000006840F0010008600CE047486830006830
:1014400020F001004449683108600846006820F037
:101450000400086000BFA068A8B1FFF721F90546A5
:1014600009E0FFF71DF9401B41F28831884202D99B
:10147000032077E626E0384868300068C0F3400073
:101480000028EED013E0FFF70BF9054608E0FFF760
:1014900007F9401B41F28831884201D9032061E6F7
:1014A0002D4868300068C0F340000028EFD1012EBD
:1014B00007D129483830006820F08050264938315B
:1014C000086000BFA069B8B32348006800F00C00B2
:1014D00008285ED0A069022846D100201F4908666E
:1014E000FFF7DEF8054606E0FFF7DAF8401B0228B2
:1014F00001D9032036E6184808380068C0F3406078
:101500000028F1D1D4E907010843616A40EA81115A
:101510000122A06AC2EB500041EA00412C20005D8C
:1015200041EA00600C49091F086001200B49086668
:10153000FFF7B6F8054607E02DE0FFF7B1F8401BCE
:10154000022801D903200DE6034808380068C0F3DB
:1015500040600028F1D01EE00838024000004742F9
:10156000800E47420070004000200C490866FFF7DB
:1015700097F8054606E0FFF793F8401B022801D9CB
:101580000320EFE506480068C0F340600028F2D170
:1015900001E00120E6E50020E4E50000000047420C
:1015A00000380240042808D14FF0E021096941F0D9
:1015B00004014FF0E022116107E04FF0E0210969DA
:1015C00021F004014FF0E02211617047704770B5BF
:1015D00004462546681EB0F1807F01D301200FE04C
:1015E000681E4FF0E02148610F214FF0FF3001F0FD
:1015F00059F800204FF0E0218861072008610020A1
:1016000070BD10B5FFF7E2FF10BD70472DE9F04740
:101610000446206805682068C668206847694FF05E
:101620000008C14605F00F08B8F1000F0AD105F017
:10163000200038B106F0200020B1204600F0AAFDBD
:10164000BDE8F087B8F1000F6DD007F0010018B9C0
:1016500006F49070002866D005F0010030B106F461
:10166000807018B1E06B40F00100E06305F0040009
:1016700030B107F0010018B1E06B40F00200E06308
:1016800005F0020030B107F0010018B1E06B40F046
:101690000400E06305F0080030B107F0010018B164
:1016A000E06B40F00800E063E06B68B305F02000F9
:1016B00028B106F0200010B1204600F06BFD206834
:1016C0004069C0F38019E06B00F0080010B9B9F16F
:1016D000000F22D0204600F03DFD2068406900F058
:1016E0004000B0B12068406920F0400021684861A6
:1016F000606B50B11748616B0865606BFEF7A2FE26
:1017000010B1606B016D88470CE02046FFF77DFF4C
:1017100008E02046FFF779FF04E02046FFF775FF59
:101720000020E0638CE705F0800030B106F0800017
:1017300018B1204600F030FF82E705F0400030B1DC
:1017400006F0400018B1204600F014FD78E700BF15
:1017500076E700004121000810B504460CB90120CD
:1017600010BDA06900B100E000BF94F8390028B9AD
:10177000002084F83800204600F028F8242084F85F
:1017800039002068C06820F400502168C8602046F5
:1017900000F04EFD2068006920F490402168086147
:1017A0002068406920F02A00216848612068C068EC
:1017B00040F400502168C8600020E063202084F8D5
:1017C000390084F83A000020CAE7000010B586B05E
:1017D000044616492068884226D100BF00200090A8
:1017E0001348006840F0100011490860084600687E
:1017F00000F01000009000BF00BF4FF4C0600190E7
:1018000002200290012003900320049007200590FD
:1018100001A90848FEF73EFE002211462520FFF7E9
:101820000DFB2520FFF7FAFA06B010BD00100140AD
:10183000443802400000024010B5034693F83A00D5
:10184000202829D101B10AB9012010BD00BF93F8A9
:101850003800012801D10220F7E7012083F8380081
:1018600000BF99629A85DA850020D863222083F828
:101870003A0000BF002083F8380000BF18684069B4
:1018800040F001001C6860611868C06840F4907006
:101890001C68E0600020D8E70220D6E710B50446B7
:1018A00016480088FF2808DB0020144908804FF400
:1018B00080711348FEF7BCFC19E0124801780F480C
:1018C00002880088401C0D4B18800D488154184632
:1018D0000088401E0A49085C0A2808D1184600887A
:1018E000801E085C0D2802D10020194608800122C4
:1018F00004490548FFF7A0FF10BD000000000020CC
:1019000018000020020000206C0100202DE9F8439F
:1019100004460D4616461F464FF0000994F839005C
:1019200020285CD105B116B90120BDE8F88300BFBD
:1019300094F83800012801D10220F6E7012084F84C
:10194000380000BF0020E063212084F83900FEF752
:10195000A7FE8146A684E6842BE0E08C401EE0844E
:10196000A068B0F5805F16D14B460022802120464A
:10197000009700F045FE08B10320D6E7A846B8F866
:101980000000C0F3080021684860206908B9AD1C58
:101990000FE06D1C0DE04B46002280212046009791
:1019A00000F02EFE08B10320BFE715F8010B2168F7
:1019B0004860E08C0028D0D14B46002240212046D0
:1019C000009700F01DFE08B10320AEE7202084F848
:1019D000390000BF002084F8380000BFA5E70220CE
:1019E000A3E7704700BFFEE7014608684069C0F3FF
:1019F000802088B16FF480600A6850610420086418
:101A000000200863202081F83D0000BF002081F8FD
:101A10003C0000BF012070470020FCE72DE9F8439F
:101A200004460F4615469946DDE908862068006899
:101A300040F48060216808602068006840F480708D
:101A400021680860434600224FF0011120460096AD
:101A500000F02BF910B10320BDE8F88307F0FE0079
:101A600021680861334642464149204600F05BF94F
:101A700030B1206C042801D10120EDE70320EBE711
:101A800000BF0020009020684069009020688069B5
:101A9000009000BF00BF32464146204600F0D0F91A
:101AA00060B1206C042807D12068006840F4007001
:101AB000216808600120CFE70320CDE7B9F1010FCD
:101AC00003D1E8B22168086119E0C5F30720216855
:101AD000086132464146204600F0B2F960B1206C00
:101AE000042807D12068006840F40070216808606D
:101AF0000120B1E70320AFE7E8B221680861324670
:101B00004146204600F09CF960B1206C042807D1C2
:101B10002068006840F400702168086001209BE79D
:101B2000032099E72068006840F48070216808600D
:101B3000434600224FF001112046009600F0B5F810
:101B400008B1032088E7F8B240F00100216808617D
:101B5000334642460649204600F0E5F830B1206C95
:101B6000042801D1012077E7032075E7002073E7FF
:101B7000020001002DE9F8430446884615469946BF
:101B8000DDE908672068006840F48070216808601B
:101B9000334600224FF001112046009700F085F8EF
:101BA00010B10320BDE8F88308F0FE002168086149
:101BB0003B4632462649204600F0B5F830B1206C4D
:101BC000042801D10120EDE70320EBE700BF00204E
:101BD000009020684069009020688069009000BFF4
:101BE00000BF3A463146204600F02AF960B1206C29
:101BF000042807D12068006840F40070216808605C
:101C00000120CFE70320CDE7B9F1010F03D1E8B2FE
:101C10002168086119E0C5F30720216808613A4688
:101C20003146204600F00CF960B1206C042807D141
:101C30002068006840F40070216808600120B1E766
:101C40000320AFE7E8B2216808610020AAE700009E
:101C50000200010070B504460D4616461DE0204600
:101C6000FFF7C2FE08B1012070BD681CA8B125B104
:101C7000FEF716FD801BA8420FD9206C40F0200013
:101C8000206400202063202084F83D0000BF002055
:101C900084F83C0000BF0320E6E720684069C0F3F9
:101CA00080000028DBD00020DEE72DE9F04104466B
:101CB0000D4617461E46DDF8188017E0701CA8B1C7
:101CC0002EB1FEF7EDFCA0EB0800B0420ED90020CB
:101CD0002063202084F83D00002084F83E0000BFEF
:101CE00084F83C0000BF0320BDE8F081C5F3074045
:101CF00001280AD120684069A9B20840A9B28842E7
:101D000001D101200BE0002009E020688069A9B220
:101D10000840A9B2884201D1012000E00020B84269
:101D2000CCD00020E0E72DE9F04104460D461646F0
:101D30001F4631E020684069C0F38020C0B12068B0
:101D4000006840F40070216808606FF480602168CA
:101D500048610420206400202063202084F83D0096
:101D600000BF002084F83C0000BF0120BDE8F081E6
:101D7000701C88B126B1FEF793FCC01BB0420BD992
:101D800000202063202084F83D0000BF002084F85C
:101D90003C0000BF0320E9E7C5F3074001280AD152
:101DA00020684069A9B20840A9B2884201D1012047
:101DB0000BE0002009E020688069A9B20840A9B2C0
:101DC000884201D1012000E000200028B2D000208C
:101DD000CCE770B504460D46164629E020684069F8
:101DE000C0F3001080B16FF010002168486100203E
:101DF00020642063202084F83D0000BF002084F888
:101E00003C0000BF012070BD25B1FEF749FC801BDE
:101E1000A8420DD9206C40F020002064202084F8D6
:101E20003D0000BF002084F83C0000BF0320EAE72B
:101E300020684069C0F380100028CFD00020E2E77E
:101E400070B504460D4616461DE02046FFF7CCFD52
:101E500008B1012070BD681CA8B125B1FEF720FCB7
:101E6000801BA8420FD9206C40F020002064002085
:101E70002063202084F83D0000BF002084F83C004F
:101E800000BF0320E6E720684069C0F3C0100028C7
:101E9000DBD00020DEE7000000B587B000BF0020E7
:101EA00001902748006840F0200025490860084656
:101EB000006800F02000019000BF00BF00BF0020BC
:101EC00001900846006840F08000086008460068FD
:101ED00000F08000019000BF00BF00BF0020019013
:101EE0000846006840F0010008600846006800F0FD
:101EF0000100019000BF00BF00BF00200190084614
:101F0000006840F0020008600846006800F0020027
:101F1000019000BF00BF01224FF4C0610948FEF7E5
:101F2000B9FB4FF4C06002900120039004900020A0
:101F3000059002A90348FEF7ADFA07B000BD000006
:101F4000303802400014024010B50C480C490860BB
:101F50000C48486000210A488160C1604FF480410C
:101F60000161002141618161C1610162FEF79EFB57
:101F700018B1422104A000F083FB10BD00540040C2
:101F800018010020A08601002E2E2F5372632F69A6
:101F900032632E630000000010B50C480C49086045
:101FA0004FF4E1304860002109488160C16001615F
:101FB0000C21416100218161C161FFF7CDFB18B1A6
:101FC000422104A000F05CFB10BD000000100140A5
:101FD0006C0100202E2E2F5372632F757361727463
:101FE0002E63000000BFFEE770477047704710B5D2
:101FF000FEF776FEFFF705FB10BD000010B592B0AE
:1020000000BF002000902F48006840F080502D490C
:1020100008600846006800F08050009000BF00BFD4
:1020200000BF002000902848006840F48040264906
:1020300008600846006800F48040009000BF00BFC0
:10204000012006900004079002200C9041050D919C
:1020500008210E914FF4A8710F91022110910421D3
:10206000119106A8FFF77AF818B1A82117A000F07F
:1020700007FB0F20019002200290002003904FF4F4
:10208000A05004904FF480500590052101A8FEF760
:1020900027FF18B1B6210DA000F0F2FAFEF7E0FF1D
:1020A0004FF47A71B0FBF1F42046FFF790FA042068
:1020B000FFF778FA00221146501EFEF7BFFE12B05D
:1020C00010BD000040380240007000402E2E2F53FB
:1020D00072632F6D61696E2E630000001448006802
:1020E00040F47000124908601248006840F0010096
:1020F0001049086000200F49083108600D48006849
:102100000D4908400B4908600C48091D0860081F6C
:10211000006820F48020091F0860002005490C3168
:1021200008604FF000600249803908607047000085
:1021300088ED00E000380240FFFFF6FE103000247A
:1021400070B50546AC6B0020E085E0842046FFF7C3
:102150005CFA70BD0168C96821F490710268D160B1
:102160000168496921F0010102685161202180F86C
:102170003A10704710B504462068C06820F040004F
:102180002168C860202084F839002046FFF729FC28
:10219000002010BD70B5044694F83A00222844D1BE
:1021A000A068B0F5805F13D1A56A206940B92068A6
:1021B0004068C0F308002880A06A801CA06219E073
:1021C00020684068C0B22880A06A401CA06211E06C
:1021D000206938B920684068C1B2A26A501CA06268
:1021E000117007E02068406800F07F01A26A501C6F
:1021F000A0621170E08D401E80B2E08598B9206821
:10220000C06820F490702168C8602068406920F0A0
:10221000010021684861202084F83A002046FFF739
:102220003DFB002070BD0020FCE70220FAE7000023
:102230002DE9F041044600252068056925F4405544
:10224000E0680543206805612068C56849F20C60B4
:1022500085432169A068084361690843E16908432F
:1022600005432068C5602068456925F44075A0696C
:10227000054320684561E069B0F5004F7ED1C4494F
:102280002068884203D0C349206888425DD1FEF7A8
:10229000FDFE00EBC00101EB001061684900B0FBDE
:1022A000F1F06421B0FBF1F00601FEF7EFFE00EB68
:1022B000C00101EB001061684900B0FBF1F7FEF7C7
:1022C000E5FE00EBC00101EB001061684900B0FBC6
:1022D000F1F06421B0FBF1F000EBC00101EB001064
:1022E000A7EB8000322101EBC0006421B0FBF1F0CC
:1022F00000F0F80006EB4006FEF7C8FE00EBC00158
:1023000001EB001061684900B0FBF1F7FEF7BEFE7B
:1023100000EBC00101EB001061684900B0FBF1F077
:102320006421B0FBF1F000EBC00101EB0010A7EB62
:102330008000322101EBC0006421B0FBF1F000F01D
:10234000070030442168886020E1FEF78FFE00EB33
:10235000C00101EB001061684900B0FBF1F064219D
:10236000B0FBF1F00601FEF781FE00EBC00101EBCE
:10237000001061684900B0FBF1F700E045E0FEF7AE
:1023800075FE00EBC00101EB001061684900B0FB75
:10239000F1F06421B0FBF1F000EBC00101EB0010A3
:1023A000A7EB8000322101EBC0006421B0FBF1F00B
:1023B00000F0F80006EB4006FEF758FE00EBC00107
:1023C00001EB001061684900B0FBF1F7FEF74EFE2B
:1023D00000EBC00101EB001061684900B0FBF1F0B7
:1023E0006421B0FBF1F000EBC00101EB0010A7EBA2
:1023F0008000322101EBC0006421B0FBF1F000F05D
:102400000700304421688860C0E061492068884244
:1024100003D06049206888425CD1FEF737FE00EBAC
:10242000C00101EB001061688900B0FBF1F6FEF716
:102430002DFE00EBC00101EB001061688900B0FBCC
:10244000F1F06421B0FBF1F000EBC00101EB0010F2
:10245000A6EB8000322101EB00106421B0FBF1F00B
:1024600000F0F006FEF712FE00EBC00101EB0010D9
:1024700061688900B0FBF1F06421B0FBF1F006EB7C
:102480000016FEF703FE00EBC00101EB00106168CF
:102490008900B0FBF1F7FEF7F9FD00EBC00101EB9D
:1024A000001061688900B0FBF1F06421B0FBF1F02D
:1024B00000EBC00101EB0010A7EB8000322101EB23
:1024C00000106421B0FBF1F000F00F0030442168EF
:1024D00088605BE0FEF7CAFD00EBC00101EB001075
:1024E00061688900B0FBF1F6FEF7C0FD00EBC001AA
:1024F00001EB001061688900B0FBF1F06421B0FBD2
:10250000F1F000EBC00101EB0010A6EB80003221DE
:1025100001EB00106421B0FBF1F000F0F006FEF7D3
:10252000A5FD00EBC00101EB001061688900B0FB64
:10253000F1F06421B0FBF1F006EB0016FEF796FD1A
:1025400000EBC00101EB001061688900B0FBF1F7FE
:10255000FEF78CFD00EBC00101EB00106168890003
:10256000B0FBF1F06421B0FBF1F000EBC00101EB36
:102570000010A7EB8000322101EB00106421B0FBBA
:10258000F1F000F00F00304421688860BDE8F08170
:102590000010014000140140014691F83900212843
:1025A0002CD18868B0F5805F0FD10A6A1088C0F31B
:1025B00008000B685860086918B9086A801C08622E
:1025C00009E0086A401C086205E00B6A581C0862B2
:1025D00018780B685860C88C401E80B2C88458B9FF
:1025E0000868C06820F080000B68D8600868C06880
:1025F00040F040000B68D860002070470220FCE7E4
:102600002DE9F04104460D4617469846069E21E006
:10261000701CF8B12EB1FEF743F8A0EB0800B042F1
:1026200018D92068C06820F4D0702168C86020687C
:10263000406920F0010021684861202084F83900B9
:1026400084F83A0000BF002084F8380000BF03205F
:10265000BDE8F081206800682840A84201D101202F
:1026600000E00020B842D3D00020F1E710B50248C6
:10267000FEF7CCFF10BD00006C01002000BFFEE79C
:1026800000BFFEE7014A024900F02FB80D270008FD
:102690001400002002480068C0F3022070470000C8
:1026A0000CED00E010B5002804DB0A07130E054A04
:1026B000135406E00A07140E034A00F00F031B1F11
:1026C000D45410BD00E400E018ED00E002E008C8BA
:1026D000121F08C1002AFAD170477047002001E09C
:1026E00001C1121F002AFBD170472DE9F0411646A7
:1026F0000F460446002503E03946B047641C6D1CB4
:1027000020780028F8D12846BDE8F08113B50C46A2
:102710004FF6FF73012269460248FFF7F7F8009869
:102720001CBD00006C010020FEF7E6FAFFF766FC16
:10273000FFF7B2FBFFF730FCFFF706FC05A0FFF741
:10274000A1FF01220D490E48FFF776F8FDF7E0FDE5
:1027500000BFFEE72A2A2A2A2A2A53544D33322060
:10276000446576426F6172642053746172742121F2
:10277000212A2A2A2A2A2A0D0A0000000200002003
:102780006C010020000000000000000001020304B2
:10279000060708090000000001020304010000010F
:1027A00040000000C0010020C005002040060020BD
:1027B0000000000074686520706167652073697AA5
:1027C00065206F66203234633032206973203820F0
:1027D00042797465732C2063616E27742077726967
:1027E0007465206D6F7265207468616E20382042B8
:1027F00079746573206174206F6E652074696D65EE
:10280000210000002428000800000020180000001B
:10281000CC2600083C28000818000020500A0000C0
:10282000DC260008000000000024F4000000000086
:0C2830001000000001000000000000008B
:040000050800018965
:00000001FF
